{
  "_format": "hh-sol-artifact-1",
  "contractName": "PriceConverter",
  "sourceName": "contracts/PriceConverter.sol",
  "abi": [
    {
      "inputs": [],
      "name": "getChainLinkLatestAnswer",
      "outputs": [
        {
          "internalType": "uint256",
          "name": "",
          "type": "uint256"
        }
      ],
      "stateMutability": "view",
      "type": "function"
    }
  ],
  "bytecode": "0x61027f610053600b82828239805160001a607314610046577f4e487b7100000000000000000000000000000000000000000000000000000000600052600060045260246000fd5b30600052607381538281f3fe73000000000000000000000000000000000000000030146080604052600436106100355760003560e01c8063a35a26671461003a575b600080fd5b610042610058565b60405161004f919061010a565b60405180910390f35b60008073694aa1769357215de4fac081bf1f309adc325306905060008173ffffffffffffffffffffffffffffffffffffffff1663feaf968c6040518163ffffffff1660e01b815260040160a060405180830381865afa1580156100bf573d6000803e3d6000fd5b505050506040513d601f19601f820116820180604052508101906100e391906101ce565b505050915050809250505090565b6000819050919050565b610104816100f1565b82525050565b600060208201905061011f60008301846100fb565b92915050565b600080fd5b600069ffffffffffffffffffff82169050919050565b6101498161012a565b811461015457600080fd5b50565b60008151905061016681610140565b92915050565b6000819050919050565b61017f8161016c565b811461018a57600080fd5b50565b60008151905061019c81610176565b92915050565b6101ab816100f1565b81146101b657600080fd5b50565b6000815190506101c8816101a2565b92915050565b600080600080600060a086880312156101ea576101e9610125565b5b60006101f888828901610157565b95505060206102098882890161018d565b945050604061021a888289016101b9565b935050606061022b888289016101b9565b925050608061023c88828901610157565b915050929550929590935056fea264697066735822122055beadfe62794761fa5b1d8239c1db22c99b21609839e357216dfac963fca22c64736f6c63430008180033",
  "linkReferences": {},
  "deployedLinkReferences": {}
}