{"contracts/PriceConverter.sol":{"PriceConverter":{"abi":[{"inputs":[],"name":"getChainLinkLatestAnswer","outputs":[{"internalType":"uint256","name":"","type":"uint256"}],"stateMutability":"view","type":"function"}],"devdoc":{"kind":"dev","methods":{},"version":1},"evm":{"bytecode":{"linkReferences":{},"object":"61027f610053600b82828239805160001a607314610046577f4e487b7100000000000000000000000000000000000000000000000000000000600052600060045260246000fd5b30600052607381538281f3fe73000000000000000000000000000000000000000030146080604052600436106100355760003560e01c8063a35a26671461003a575b600080fd5b610042610058565b60405161004f919061010a565b60405180910390f35b60008073694aa1769357215de4fac081bf1f309adc325306905060008173ffffffffffffffffffffffffffffffffffffffff1663feaf968c6040518163ffffffff1660e01b815260040160a060405180830381865afa1580156100bf573d6000803e3d6000fd5b505050506040513d601f19601f820116820180604052508101906100e391906101ce565b505050915050809250505090565b6000819050919050565b610104816100f1565b82525050565b600060208201905061011f60008301846100fb565b92915050565b600080fd5b600069ffffffffffffffffffff82169050919050565b6101498161012a565b811461015457600080fd5b50565b60008151905061016681610140565b92915050565b6000819050919050565b61017f8161016c565b811461018a57600080fd5b50565b60008151905061019c81610176565b92915050565b6101ab816100f1565b81146101b657600080fd5b50565b6000815190506101c8816101a2565b92915050565b600080600080600060a086880312156101ea576101e9610125565b5b60006101f888828901610157565b95505060206102098882890161018d565b945050604061021a888289016101b9565b935050606061022b888289016101b9565b925050608061023c88828901610157565b915050929550929590935056fea264697066735822122055beadfe62794761fa5b1d8239c1db22c99b21609839e357216dfac963fca22c64736f6c63430008180033","opcodes":"PUSH2 0x27F PUSH2 0x53 PUSH1 0xB DUP3 DUP3 DUP3 CODECOPY DUP1 MLOAD PUSH1 0x0 BYTE PUSH1 0x73 EQ PUSH2 0x46 JUMPI PUSH32 0x4E487B7100000000000000000000000000000000000000000000000000000000 PUSH1 0x0 MSTORE PUSH1 0x0 PUSH1 0x4 MSTORE PUSH1 0x24 PUSH1 0x0 REVERT JUMPDEST ADDRESS PUSH1 0x0 MSTORE PUSH1 0x73 DUP2 MSTORE8 DUP3 DUP2 RETURN INVALID PUSH20 0x0 ADDRESS EQ PUSH1 0x80 PUSH1 0x40 MSTORE PUSH1 0x4 CALLDATASIZE LT PUSH2 0x35 JUMPI PUSH1 0x0 CALLDATALOAD PUSH1 0xE0 SHR DUP1 PUSH4 0xA35A2667 EQ PUSH2 0x3A JUMPI JUMPDEST PUSH1 0x0 DUP1 REVERT JUMPDEST PUSH2 0x42 PUSH2 0x58 JUMP JUMPDEST PUSH1 0x40 MLOAD PUSH2 0x4F SWAP2 SWAP1 PUSH2 0x10A JUMP JUMPDEST PUSH1 0x40 MLOAD DUP1 SWAP2 SUB SWAP1 RETURN JUMPDEST PUSH1 0x0 DUP1 PUSH20 0x694AA1769357215DE4FAC081BF1F309ADC325306 SWAP1 POP PUSH1 0x0 DUP2 PUSH20 0xFFFFFFFFFFFFFFFFFFFFFFFFFFFFFFFFFFFFFFFF AND PUSH4 0xFEAF968C PUSH1 0x40 MLOAD DUP2 PUSH4 0xFFFFFFFF AND PUSH1 0xE0 SHL DUP2 MSTORE PUSH1 0x4 ADD PUSH1 0xA0 PUSH1 0x40 MLOAD DUP1 DUP4 SUB DUP2 DUP7 GAS STATICCALL ISZERO DUP1 ISZERO PUSH2 0xBF JUMPI RETURNDATASIZE PUSH1 0x0 DUP1 RETURNDATACOPY RETURNDATASIZE PUSH1 0x0 REVERT JUMPDEST POP POP POP POP PUSH1 0x40 MLOAD RETURNDATASIZE PUSH1 0x1F NOT PUSH1 0x1F DUP3 ADD AND DUP3 ADD DUP1 PUSH1 0x40 MSTORE POP DUP2 ADD SWAP1 PUSH2 0xE3 SWAP2 SWAP1 PUSH2 0x1CE JUMP JUMPDEST POP POP POP SWAP2 POP POP DUP1 SWAP3 POP POP POP SWAP1 JUMP JUMPDEST PUSH1 0x0 DUP2 SWAP1 POP SWAP2 SWAP1 POP JUMP JUMPDEST PUSH2 0x104 DUP2 PUSH2 0xF1 JUMP JUMPDEST DUP3 MSTORE POP POP JUMP JUMPDEST PUSH1 0x0 PUSH1 0x20 DUP3 ADD SWAP1 POP PUSH2 0x11F PUSH1 0x0 DUP4 ADD DUP5 PUSH2 0xFB JUMP JUMPDEST SWAP3 SWAP2 POP POP JUMP JUMPDEST PUSH1 0x0 DUP1 REVERT JUMPDEST PUSH1 0x0 PUSH10 0xFFFFFFFFFFFFFFFFFFFF DUP3 AND SWAP1 POP SWAP2 SWAP1 POP JUMP JUMPDEST PUSH2 0x149 DUP2 PUSH2 0x12A JUMP JUMPDEST DUP2 EQ PUSH2 0x154 JUMPI PUSH1 0x0 DUP1 REVERT JUMPDEST POP JUMP JUMPDEST PUSH1 0x0 DUP2 MLOAD SWAP1 POP PUSH2 0x166 DUP2 PUSH2 0x140 JUMP JUMPDEST SWAP3 SWAP2 POP POP JUMP JUMPDEST PUSH1 0x0 DUP2 SWAP1 POP SWAP2 SWAP1 POP JUMP JUMPDEST PUSH2 0x17F DUP2 PUSH2 0x16C JUMP JUMPDEST DUP2 EQ PUSH2 0x18A JUMPI PUSH1 0x0 DUP1 REVERT JUMPDEST POP JUMP JUMPDEST PUSH1 0x0 DUP2 MLOAD SWAP1 POP PUSH2 0x19C DUP2 PUSH2 0x176 JUMP JUMPDEST SWAP3 SWAP2 POP POP JUMP JUMPDEST PUSH2 0x1AB DUP2 PUSH2 0xF1 JUMP JUMPDEST DUP2 EQ PUSH2 0x1B6 JUMPI PUSH1 0x0 DUP1 REVERT JUMPDEST POP JUMP JUMPDEST PUSH1 0x0 DUP2 MLOAD SWAP1 POP PUSH2 0x1C8 DUP2 PUSH2 0x1A2 JUMP JUMPDEST SWAP3 SWAP2 POP POP JUMP JUMPDEST PUSH1 0x0 DUP1 PUSH1 0x0 DUP1 PUSH1 0x0 PUSH1 0xA0 DUP7 DUP9 SUB SLT ISZERO PUSH2 0x1EA JUMPI PUSH2 0x1E9 PUSH2 0x125 JUMP JUMPDEST JUMPDEST PUSH1 0x0 PUSH2 0x1F8 DUP9 DUP3 DUP10 ADD PUSH2 0x157 JUMP JUMPDEST SWAP6 POP POP PUSH1 0x20 PUSH2 0x209 DUP9 DUP3 DUP10 ADD PUSH2 0x18D JUMP JUMPDEST SWAP5 POP POP PUSH1 0x40 PUSH2 0x21A DUP9 DUP3 DUP10 ADD PUSH2 0x1B9 JUMP JUMPDEST SWAP4 POP POP PUSH1 0x60 PUSH2 0x22B DUP9 DUP3 DUP10 ADD PUSH2 0x1B9 JUMP JUMPDEST SWAP3 POP POP PUSH1 0x80 PUSH2 0x23C DUP9 DUP3 DUP10 ADD PUSH2 0x157 JUMP JUMPDEST SWAP2 POP POP SWAP3 SWAP6 POP SWAP3 SWAP6 SWAP1 SWAP4 POP JUMP INVALID LOG2 PUSH5 0x6970667358 0x22 SLT KECCAK256 SSTORE 0xBE 0xAD INVALID PUSH3 0x794761 STATICCALL JUMPDEST SAR DUP3 CODECOPY 0xC1 0xDB 0x22 0xC9 SWAP12 0x21 PUSH1 0x98 CODECOPY 0xE3 JUMPI 0x21 PUSH14 0xFAC963FCA22C64736F6C63430008 XOR STOP CALLER "},"gasEstimates":{"creation":{"codeDepositCost":"127800","executionCost":"199","totalCost":"127999"},"external":{"getChainLinkLatestAnswer()":"infinite"},"internal":{"getConvertionRate(uint256)":"infinite"}},"methodIdentifiers":{"getChainLinkLatestAnswer()":"a35a2667"}},"storageLayout":{"storage":[],"types":null},"userdoc":{"kind":"user","methods":{},"version":1}}}}